:020000040800F2
:1000000000280020FD140008851400088D14000845
:10001000951400089D140008A514000800000000B5
:10002000000000000000000000000000AD14000807
:10003000B914000800000000C5140008D11400081D
:100040004515000845150008451500084515000828
:100050004515000845150008451500084515000818
:100060004515000845150008451500084515000808
:1000700045150008451500084515000845150008F8
:1000800045150008451500084515000845150008E8
:1000900045150008451500084515000845150008D8
:1000A00045150008451500084515000845150008C8
:1000B000DD14000845150008000000004515000883
:1000C000451500080000000000000000451500086C
:1000D000000000004515000845150008000000005C
:1000E00045150008451500084515000800000000EA
:1000F0000000000000000000000000000000000000
:0C01000000000000000000005FF808F1A3
:10010C0010B5054C237833B9044B13B10448AFF345
:10011C0000800123237010BD580000200000000057
:10012C007C2B000808B5034B1BB103490348AFF304
:10013C00008008BD000000005C0000207C2B000843
:10014C0080B483B000AF7860094A7B6852F82330E2
:10015C00012B06D1064A7B68002142F823100123AB
:10016C0000E0002318460C37BD4680BC704700BF2A
:10017C007400002080B483B000AF7860094A7B68BB
:10018C0052F82330012B06D1064A7B68002142F835
:10019C002310012300E0002318460C37BD4680BC19
:1001AC00704700BF8000002080B582B000AF0023F4
:1001BC007B608FE04C4A7B6852F823204B497B686C
:1001CC0041F823204A4A7B6852F8232046497B6831
:1001DC0041F823207B68002B0AD10421454801F00B
:1001EC0099FC03461946424A7B6842F823101AE0F0
:1001FC007B68012B0AD108213E4801F08BFC034699
:10020C0019463B4A7B6842F823100CE07B68022BB2
:10021C0009D11021374801F07DFC03461946344AB8
:10022C007B6842F82310314A7B6852F823202E4910
:10023C007B6851F823309A4249D12B4A7B6852F89B
:10024C0023202B497B6851F823309A423FD1284A0E
:10025C007B6852F82330002B2FD1274A7B6852F849
:10026C002330002B0FD0254A7B68012142F8231044
:10027C00214A7B68002142F82310214A7B68C8215F
:10028C0042F8231023E01E4A7B6852F823305A1E92
:10029C001B497B6841F82320194A7B6852F82330AC
:1002AC00002B14D1174A7B68012142F82310144A01
:1002BC007B68C82142F8231009E00F4A7B680121B2
:1002CC0042F823100E4A7B68C82142F823107B6841
:1002DC0001337B607B68022B7FF76CAF00BF00BFE4
:1002EC000837BD4680BD00BF0C0000200000002078
:1002FC001800002000080140240000207400002099
:10030C00300000208000002080B582B000AF786003
:10031C007B68092B00F2808101A252F823F000BF08
:10032C00550300089D030008E50300082D04000890
:10033C0075040008BD040008050500084D050008FB
:10034C0095050008DD05000800220121B54801F0E3
:10035C00F8FB00220221B34801F0F3FB0022042138
:10036C00B04801F0EEFB00220821AE4801F0E9FB99
:10037C0000221021AB4801F0E4FB00222021A94807
:10038C0001F0DFFB01224021A64801F0DAFB44E139
:10039C0001220121A34801F0D4FB00220221A14833
:1003AC0001F0CFFB002204219E4801F0CAFB012280
:1003BC0008219C4801F0C5FB01221021994801F04D
:1003CC00C0FB01222021974801F0BBFB01224021F8
:1003DC00944801F0B6FB20E100220121914801F084
:1003EC00B0FB002202218F4801F0ABFB012204215B
:1003FC008C4801F0A6FB002208218A4801F0A1FBE1
:10040C0000221021874801F09CFB01222021854805
:10041C0001F097FB00224021824801F092FBFCE0A6
:10042C00002201217F4801F08CFB002202217D4833
:10043C0001F087FB002204217A4801F082FB0022A4
:10044C000821784801F07DFB01221021754801F04C
:10045C0078FB01222021734801F073FB002240211C
:10046C00704801F06EFBD8E0012201216D4801F0CB
:10047C0068FB002202216B4801F063FB002204217F
:10048C00684801F05EFB01220821664801F059FB27
:10049C0001221021634801F054FB00222021614805
:1004AC0001F04FFB002240215E4801F04AFBB4E012
:1004BC00002201215B4801F044FB01220221594832
:1004CC0001F03FFB00220421564801F03AFB0022C8
:1004DC000821544801F035FB01221021514801F04C
:1004EC0030FB002220214F4801F02BFB0022402141
:1004FC004C4801F026FB90E000220121494801F014
:10050C0020FB01220221474801F01BFB00220421A1
:10051C00444801F016FB00220821424801F011FB6F
:10052C00002210213F4801F00CFB002220213D4805
:10053C0001F007FB002240213A4801F002FB6CE07D
:10054C0000220121374801F0FCFA00220221354833
:10055C0001F0F7FA00220421324801F0F2FA0122EC
:10056C000821304801F0EDFA012210212D4801F04C
:10057C00E8FA012220212B4801F0E3FA0122402164
:10058C00284801F0DEFA48E000220121254801F05C
:10059C00D8FA00220221234801F0D3FA00220421C8
:1005AC00204801F0CEFA002208211E4801F0C9FAB9
:1005BC00002210211B4801F0C4FA00222021194806
:1005CC0001F0BFFA00224021164801F0BAFA24E0EB
:1005DC0000220121134801F0B4FA00220221114833
:1005EC0001F0AFFA002204210E4801F0AAFA002211
:1005FC0008210C4801F0A5FA01221021094801F04C
:10060C00A0FA00222021074801F09BFA0022402189
:10061C00044801F096FA00E000BF00BF0837BD4661
:10062C0080BD00BF000C014080B400AF264B1B689E
:10063C00632B08DC244B1B68244A82FB03129210A8
:10064C00DB17D31A00E00923214A13601E4B1B68E9
:10065C00632B0DDC1C4B19681C4B83FB01239A107C
:10066C00CB17D21A13469B0013445B00CA1A00E046
:10067C000922174B5A60174B1B68632B08DC154B70
:10068C001B68124A82FB03129210DB17D31A00E08C
:10069C0009230F4A93600F4B1B68632B0DDC0D4B2A
:1006AC0019680A4B83FB01239A10CB17D21A1346F5
:1006BC009B0013445B00CA1A00E00922044BDA6069
:1006CC0000BFBD4680BC7047A80000206766666608
:1006DC008C000020AC00002080B582B000AF7860A8
:1006EC00012280212B4801F02CFA01224FF4807159
:1006FC00284801F026FA01224FF40071254801F038
:10070C0020FA01224FF48061224801F01AFA7B682A
:10071C00032B3AD801A252F823F000BF3907000886
:10072C004F070008670700087F0700080022802198
:10073C00184801F006FA184B1B681846FFF7E4FD41
:10074C0024E000224FF48071124801F0FAF9124BA8
:10075C005B681846FFF7D8FD18E000224FF40071D3
:10076C000C4801F0EEF90C4B9B681846FFF7CCFDDA
:10077C000CE000224FF48061064801F0E2F9064BD0
:10078C00DB681846FFF7C0FD00E000BF00BF08376C
:10079C00BD4680BD000C01408C00002080B483B0AD
:1007AC0000AF78607B68023B032B2BD801A252F878
:1007BC0023F000BFD1070008E3070008EF0700088B
:1007CC0005080008124B1B68124A1360124B1B6879
:1007DC00124A136017E0124B1B6801330F4A136067
:1007EC0011E00D4B1B6801330A4A1360084B1B6860
:1007FC0001330A4A136006E0094B1B680133054AB2
:10080C00136000E000BF00BF0C37BD4680BC7047D2
:10081C0040000020A800002044000020AC00002074
:10082C004800002080B500AF012280210B4801F068
:10083C0088F901224FF48071084801F082F90122F5
:10084C004FF40071054801F07CF901224FF48061EE
:10085C00024801F076F900BF80BD00BF000C0140DA
:10086C0080B500AFA04B1B68013B042B00F2478204
:10087C0001A252F823F000BF99080008DD08000817
:10088C00EF090008150B00081B0C0008FFF7CAFF46
:10089C00954B02221A60954B00221A60944B1B68F0
:1008AC004FF47A7202FB03F31946012000F018FD95
:1008BC00904B01229A604FF47A71002000F010FDE9
:1008CC00894B1B681846FFF769FFFFF7ADFE1FE267
:1008DC0000222021884801F034F901224021864869
:1008EC0001F02FF901228021834801F02AF901221D
:1008FC004FF48071804801F024F901224FF400710B
:10090C007D4801F01EF900224FF480617A4801F015
:10091C0018F9012000F00AFD0346002B11D0724B90
:10092C0003221A60754B1B684FF47A7202FB03F3B7
:10093C001946012000F0D4FC6B4B1B681846FFF7DE
:10094C002DFF002000F0F2FC0346002B10D06C4B66
:10095C001B68013B6A4A13606A4B1B68013B694A7E
:10096C001360FFF761FE4FF47A71002000F0B8FCC1
:10097C00022000F0DBFC0346002B14D0FA210220ED
:10098C0000F0AEFC594B1B681846FFF7A5FE574B01
:10099C001B680133554A1360544B1B68032B02DD53
:1009AC00524B00221A600020FFF7CAFB0346012BB2
:1009BC0040F0A7814C4B0B221A604FF4FA710120C6
:1009CC0000F08EFC494B00221A604A4B01229A60BF
:1009DC00FFF728FF00F038FB00F048FB00F058FB55
:1009EC008FE100222021444801F0ABF80122402184
:1009FC00414801F0A6F8012280213F4801F0A1F8FE
:100A0C0001224FF480713C4801F09BF800224FF416
:100A1C000071394801F095F801224FF48061364895
:100A2C0001F08FF8012000F081FC0346012B11D15D
:100A3C002D4B04221A602E4B1B684FF47A7202FB6A
:100A4C0003F31946012000F04BFC274B1B6818469A
:100A5C00FFF7A4FE002000F069FC0346002B10D029
:100A6C00274B1B68013B264A1360264B1B68013B36
:100A7C00244A1360FFF7D8FD4FF47A71002000F080
:100A8C002FFC022000F052FC0346002B14D0174B15
:100A9C001B681846FFF720FEFA21022000F020FC0C
:100AAC00124B1B680133114A1360104B1B68032B4C
:100ABC0002DD0E4B00221A600020FFF741FB0346BB
:100ACC00012B40F02081084B0B221A604FF4FA7175
:100ADC00012000F005FCFFF7A5FE00F0B5FA00F0D0
:100AEC00C5FA00F0D5FA0EE1A40000209C0000200D
:100AFC00440000200C0100200008014048000020A8
:100B0C00A8000020AC00002001222021814801F027
:100B1C0018F8012240217F4801F013F800228021AF
:100B2C007C4801F00EF800224FF48071794801F0F6
:100B3C0008F801224FF40071764801F002F8012206
:100B4C004FF48061734800F0FCFF012000F0EEFBD5
:100B5C000346012B11D1704B05221A606F4B1B6899
:100B6C004FF47A7202FB03F31946012000F0B8FB34
:100B7C00694B1B681846FFF711FE002000F0D6FBEE
:100B8C000346002B10D0664B1B68013B644A136074
:100B9C00644B1B68013B634A1360FFF745FD4FF440
:100BAC007A71002000F09CFB022000F0BFFB034692
:100BBC00002B14D05C4B1B681846FFF78DFDFA21F7
:100BCC00022000F08DFB584B1B680133564A136012
:100BDC00554B1B68032B02DD534B00221A6000207F
:100BEC00FFF7AEFA0346012B40F08F804A4B0B22E5
:100BFC001A604FF4FA71012000F072FBFFF712FE3D
:100C0C0000F022FA00F032FA00F042FA7DE0012204
:100C1C002021404800F095FF002240213D4800F083
:100C2C0090FF012280213B4800F08BFF00224FF403
:100C3C008071384800F085FF01224FF4007135486F
:100C4C0000F07FFF01224FF48061324800F079FF01
:100C5C00012000F06BFB0346012B07D12E4B012228
:100C6C001A602D4B1B681846FFF798FD002000F00A
:100C7C005DFB0346002B10D0294B1B68013B284A17
:100C8C001360284B1B68013B264A1360FFF7CCFC12
:100C9C004FF47A71002000F023FB022000F046FB99
:100CAC000346002B14D0204B1B681846FFF714FD8D
:100CBC00FA21022000F014FB1B4B1B6801331A4A6B
:100CCC001360194B1B68032B02DD174B00221A60B3
:100CDC000020FFF735FA0346012B18D10E4B0B22DF
:100CEC001A604FF4FA71012000F0FAFAFFF79AFD3E
:100CFC0000F0AAF900F0BAF900F0CAF907E000BF59
:100D0C0006E000BF04E000BF02E000BF00E000BF4F
:100D1C0000BF80BD00080140A40000204800002056
:100D2C00A8000020AC0000209C00002080B500AF83
:100D3C007F4B1B680D2B00F00B810D2B00F3698191
:100D4C000B2B02D00C2B7AD063E17A4B1B687A4ABE
:100D5C0013607A4B02221A60012000F0E7FA034676
:100D6C00012B0DD12021764800F003FF4FF4807148
:100D7C00734800F0FEFE4FF4FA71012000F0B0FA57
:100D8C00022000F0D3FA0346002B16D0FA210220E1
:100D9C0000F0A6FAFFF748FC6A4B1B681846FFF7F1
:100DAC009BFC684B1B680133664A1360654B1B68E0
:100DBC00032B02DD634B00221A600120FFF7C0F900
:100DCC000346002B04D05B4B1B680133594A13605C
:100DDC000120FFF7CFF90346002B04D0554B1B68BD
:100DEC000533544A13600220FFF7AAF90346002B7F
:100DFC0010D000F029F94E4B0C221A604FF4FA7106
:100E0C00012000F06DFA4B4B1B684F4A1360494BA5
:100E1C0001221A600020FFF793F90346002B00F023
:100E2C00FA8000F011F9424B0C221A604FF4FA715F
:100E3C00012000F055FA3F4B01221A60EBE03D4BCC
:100E4C001B683D4A13603D4B03221A60012000F0E1
:100E5C006DFA0346012B0DD14021394800F089FE73
:100E6C004FF40071364800F084FE4FF4FA71012003
:100E7C0000F036FA022000F059FA0346002B16D087
:100E8C00FA21022000F02CFAFFF7CEFB2D4B1B6849
:100E9C001846FFF721FC2B4B1B680133294A1360C2
:100EAC00284B1B68032B02DD264B00221A60012005
:100EBC00FFF746F90346002B04D01E4B1B68013389
:100ECC001C4A13600120FFF755F90346002B04D090
:100EDC00184B1B680533174A13600220FFF730F9D3
:100EEC000346002B13D000F0C1F8114B0D221A60F1
:100EFC004FF4FA71012000F0F3F90E4B1B68134A02
:100F0C0013600C4B01221A600B4B01221A6000205B
:100F1C00FFF716F90346012B7FD100F0A7F8044B1D
:100F2C000D221A604FF4FA71012000F0D9F974E027
:100F3C00A40000203C000020A8000020AC000020F1
:100F4C0000080140A00000204000002048000020C4
:100F5C00344B1A68344B1B68D31A344A1360344B25
:100F6C0004221A60012000F0E1F90346012B0DD197
:100F7C008021304800F0FDFD4FF480612D4800F0D9
:100F8C00F8FD4FF4FA71012000F0AAF9022000F0EC
:100F9C00CDF90346002B16D0FA21022000F0A0F95F
:100FAC00FFF742FB244B1B681846FFF795FB224BBF
:100FBC001B680133204A13601F4B1B68032B02DD97
:100FCC001D4B00221A600220FFF7BAF80346002BD3
:100FDC0013D000F05DF8194B01221A60134B1B68FB
:100FEC00174A1360174B01221A600E4B1B680F4AED
:100FFC001360134B1B680E4A13600020FFF7A0F818
:10100C000346012B0BD100F043F80C4B01221A6064
:10101C0005E000BF04E000BF02E000BF00E000BF3D
:10102C0000BF80BD4000002048000020A800002028
:10103C00AC00002000080140A0000020A40000200B
:10104C00440000203C00002080B500AF012220218C
:10105C00054800F076FD01224FF48071024800F043
:10106C0070FD00BF80BD00BF0008014080B500AF1F
:10107C0001224021054800F064FD01224FF400716B
:10108C00024800F05EFD00BF80BD00BF00080140BB
:10109C0080B500AF01228021054800F052FD0122ED
:1010AC004FF48061024800F04CFD00BF80BD00BFD2
:1010BC000008014080B500AF00F040FA00F014F8D1
:1010CC0000F09AF800F04CF8054801F099F9054B3E
:1010DC0001221A60FFF7C4FBFFF728FE00BFF9E7F7
:1010EC00B0000020A400002080B590B000AF07F144
:1010FC00180328220021184601F00EFD3B1D00228A
:10110C001A605A609A60DA601A610223BB6101238B
:10111C00BB621023FB6200237B6307F118031846A4
:10112C0000F040FD0346002B01D000F0D3F80F2354
:10113C007B600023BB600023FB6000233B6100232A
:10114C007B613B1D0021184600F0AEFF0346002BCF
:10115C0001D000F0BFF800BF4037BD4680BD000095
:10116C0080B586B000AF07F1080300221A605A6000
:10117C009A60DA603B4600221A605A601D4B4FF0B1
:10118C0080421A601B4B41F63F725A60194B002289
:10119C009A60184B0922DA60164B00221A61154B23
:1011AC0000229A61134801F0DBF80346002B01D0B2
:1011BC0000F090F84FF48053BB6007F10803194618
:1011CC000C4801F059FA0346002B01D000F082F8CC
:1011DC0000233B6000237B603B461946054801F029
:1011EC0031FC0346002B01D000F074F800BF183717
:1011FC00BD4680BDB000002080B586B000AF07F1C1
:10120C00080300221A605A609A60DA60284B9B69C6
:10121C00274A43F004039361254B9B6903F00403B5
:10122C007B607B68224B9B69214A43F008039361E6
:10123C001F4B9B6903F008033B603B6800224FF493
:10124C00FC611C4800F07DFC002240F2FF711A4842
:10125C0000F077FC1C23BB600023FB6001233B6187
:10126C0007F108031946134800F0D8FA4FF4FC6351
:10127C00BB600123FB6000233B6102237B6107F110
:10128C00080319460B4800F0C9FA40F2FF73BB6023
:10129C000123FB6000233B6102237B6107F1080300
:1012AC001946054800F0BAFA00BF1837BD4680BD94
:1012BC000010024000080140000C014080B582B0D3
:1012CC0000AF786000F052F8FEF76EFF00BF0837F1
:1012DC00BD4680BD80B400AF72B600BF00BFFDE755
:1012EC0080B483B000AF786039607B68002B12DB70
:1012FC007B68042B0FDC3B68094A82FB03129210BB
:10130C00DB17D21A07497B6841F82320064A7B6811
:10131C00002142F8231000BF0C37BD4680BC70473B
:10132C0067666666F80000200C01002080B483B06C
:10133C0000AF78607B68002B0FDB7B68042B0CDC28
:10134C00094A7B6852F82330012B06D1064A7B6888
:10135C00002142F82310012300E0002318460C372B
:10136C00BD4680BC704700BF0C01002080B483B028
:10137C0000AF00237B601CE0124A7B6852F82330DC
:10138C00002B13DD0F4A7B6852F823305A1E0D498F
:10139C007B6841F823200B4A7B6852F82330002BE2
:1013AC0004DC094A7B68012142F823107B68013375
:1013BC007B607B68042BDFDD00BF00BF0C37BD46B4
:1013CC0080BC7047F80000200C01002080B485B070
:1013DC0000AF154B9B69144A43F001039361124B08
:1013EC009B6903F00103BB60BB680F4BDB690E4AC2
:1013FC0043F08053D3610C4BDB6903F080537B606B
:10140C007B680A4B5B68FB60FB6823F0E063FB6066
:10141C00FB6843F08063FB60044AFB68536000BFC9
:10142C001437BD4680BC70470010024000000140DC
:10143C0080B584B000AF78607B681B68B3F1804FD7
:10144C0013D10C4BDB690B4A43F00103D361094BFD
:10145C00DB6903F00103FB60FB68002200211C2008
:10146C0000F0A5F91C2000F0BEF900BF1037BD46F6
:10147C0080BD00BF0010024080B400AF00BFFDE78C
:10148C0080B400AF00BFFDE780B400AF00BFFDE744
:10149C0080B400AF00BFFDE780B400AF00BFFDE734
:1014AC0080B400AF00BFBD4680BC704780B400AFB5
:1014BC0000BFBD4680BC704780B400AF00BFBD46C6
:1014CC0080BC704780B500AF00F07EF800BF80BDD7
:1014DC0080B500AF024800F0DFFF00BF80BD00BF49
:1014EC00B000002080B400AF00BFBD4680BC704788
:1014FC00FFF7F8FF0B480C490C4A002302E0D458C4
:10150C00C4500433C4188C42F9D3094A094C002343
:10151C0001E013600432A242FBD301F005FBFFF79C
:10152C00C9FD70470000002058000020C02B0008A7
:10153C005800002024010020FEE7000080B500AF19
:10154C00084B1B68074A43F010031360032000F09C
:10155C0023F90F2000F008F8FFF738FF0023184696
:10156C0080BD00BF0020024080B582B000AF786023
:10157C00124B1A68124B1B7819464FF47A73B3FB53
:10158C00F1F3B2FBF3F3184600F03BF90346002BE2
:10159C0001D001230EE07B680F2B0AD8002279685A
:1015AC004FF0FF3000F003F9064A7B68136000230C
:1015BC0000E0012318460837BD4680BD4C000020D2
:1015CC00540000205000002080B400AF054B1B7865
:1015DC001A46054B1B681344034A136000BFBD46F3
:1015EC0080BC7047540000202001002080B400AF64
:1015FC00024B1B681846BD4680BC7047200100207A
:10160C0080B485B000AF78607B6803F00703FB60A3
:10161C000C4BDB68BB60BA684FF6FF031340BB6032
:10162C00FB681A02BB68134343F0BF6343F40033F7
:10163C00BB60044ABB68D36000BF1437BD4680BC96
:10164C00704700BF00ED00E080B400AF044BDB68D6
:10165C001B0A03F007031846BD4680BC704700BF49
:10166C0000ED00E080B483B000AF0346FB7197F946
:10167C000730002B0BDBFB7903F01F02064997F9AF
:10168C0007305B09012000FA02F241F8232000BF69
:10169C000C37BD4680BC704700E100E080B483B0DD
:1016AC0000AF03463960FB7197F90730002B0ADB5A
:1016BC003B68DAB20C4997F907301201D2B20B44ED
:1016CC0083F800230AE03B68DAB20849FB7903F09F
:1016DC000F03043B1201D2B20B441A7600BF0C3735
:1016EC00BD4680BC704700BF00E100E000ED00E0AB
:1016FC0080B489B000AFF860B9607A60FB6803F021
:10170C000703FB61FB69C3F10703042B28BF042308
:10171C00BB61FB690433062B02D9FB69033B00E078
:10172C0000237B614FF0FF32BB6902FA03F3DA430B
:10173C00BB681A407B699A404FF0FF317B6901FA14
:10174C0003F3D9437B680B40134318462437BD463B
:10175C0080BC704780B582B000AF78607B68013B7D
:10176C00B3F1807F01D301230FE00A4A7B68013B70
:10177C0053600F214FF0FF30FFF790FF054B002215
:10178C009A60044B07221A60002318460837BD469E
:10179C0080BD00BF10E000E080B582B000AF786083
:1017AC007868FFF72DFF00BF0837BD4680BD80B5B8
:1017BC0086B000AF0346B9607A60FB7300237B618F
:1017CC00FFF742FF78617A68B9687869FFF790FF94
:1017DC00024697F90F3011461846FFF75FFF00BF1E
:1017EC001837BD4680BD80B582B000AF0346FB7193
:1017FC0097F907301846FFF735FF00BF0837BD468D
:10180C0080BD80B582B000AF78607868FFF7A2FF2A
:10181C00034618460837BD4680BD000080B48BB027
:10182C0000AF7860396000237B6200233B6261E18A
:10183C0001227B6A02FA03F3FB613B681B68FA69BD
:10184C001340BB61BA69FB699A4240F050813B6816
:10185C005B68974A93425ED0954A934275D8954AF5
:10186C00934258D0934A93426FD8934A934252D0A2
:10187C00914A934269D8914A93424CD08F4A9342F1
:10188C0063D88F4A934246D08D4A93425DD8122B2F
:10189C002AD8122B59D801A252F823F02319000888
:1018AC00FD1800080F1900085119000857190008F5
:1018BC00571900085719000857190008571900083C
:1018CC00571900085719000857190008571900082C
:1018DC00571900085719000857190008571900081C
:1018EC000519000819190008764A934213D02CE008
:1018FC003B68DB683B6229E03B68DB6804333B6296
:10190C0024E03B68DB6808333B621FE03B68DB6824
:10191C000C333B621AE03B689B68002B02D104231A
:10192C003B6213E03B689B68012B05D108233B62AB
:10193C007B68FA691A6109E008233B627B68FA69E3
:10194C005A6103E000233B6200E000BFBB69FF2B40
:10195C0001D87B6801E07B6804337B61BB69FF2B9A
:10196C0002D87B6A9B0002E07B6A083B9B003B61D0
:10197C007B691A680F213B6901FA03F3DB431A40B8
:10198C00396A3B6901FA03F31A437B691A603B68B5
:10199C005B6803F08053002B00F0A9804A4B9B69D5
:1019AC00494A43F001039361474B9B6903F00103E0
:1019BC00BB60BB68454A7B6A9B08023352F82330F4
:1019CC00FB607B6A03F003039B000F2202FA03F314
:1019DC00DB43FA681340FB607B683D4A93420DD0B1
:1019EC007B683C4A934207D07B683B4A934201D1C7
:1019FC00022304E0032302E0012300E000237A6ABF
:101A0C0002F0030292009340FA681343FB602F49E3
:101A1C007B6A9B080233FA6841F823203B685B68B9
:101A2C0003F48013002B06D02C4B9A682B49BB690E
:101A3C0013438B6006E0294B9A68BB69DB4327494B
:101A4C0013408B603B685B6803F40013002B06D0DB
:101A5C00224BDA682149BB691343CB6006E01F4B6C
:101A6C00DA68BB69DB431D491340CB603B685B689C
:101A7C0003F40033002B06D0184B5A681749BB6986
:101A8C0013434B6006E0154B5A68BB69DB431349A3
:101A9C0013404B603B685B6803F48033002B1FD012
:101AAC000E4B1A680D49BB6913430B601FE000BF56
:101ABC000000321000003110000022100000211034
:101ACC000000121000001110001002400000014034
:101ADC0000080140000C01400010014000040140CE
:101AEC000B4B1A68BB69DB43094913400B607B6ADB
:101AFC0001337B623B681A687B6A22FA03F3002B82
:101B0C007FF496AE00BF00BF2C37BD4680BC70473B
:101B1C000004014080B485B000AF78600B467B8038
:101B2C007B689A687B881340002B02D00123FB73DF
:101B3C0001E00023FB73FB7B18461437BD4680BCC9
:101B4C00704780B483B000AF78600B467B8013463F
:101B5C007B707B78002B03D07A887B681A6103E05A
:101B6C007B881A047B681A6100BF0C37BD4680BCA9
:101B7C00704780B485B000AF78600B467B807B6883
:101B8C00DB68FB607A88FB6813401A04FB68D94356
:101B9C007B880B401A437B681A6100BF1437BD4623
:101BAC0080BC704780B586B000AF78607B68002B36
:101BBC0001D1012372E27B681B6803F00103002B47
:101BCC0000F08780924B5B6803F00C03042B0CD065
:101BDC008F4B5B6803F00C03082B12D18C4B5B68AA
:101BEC0003F48033B3F5803F0BD1894B1B6803F4AE
:101BFC000033002B6CD07B685B68002B68D1012311
:101C0C004CE27B685B68B3F5803F06D1804B1B6868
:101C1C007F4A43F4803313602EE07B685B68002BB3
:101C2C000CD17B4B1B687A4A23F480331360784BBE
:101C3C001B68774A23F4802313601DE07B685B6884
:101C4C00B3F5A02F0CD1724B1B68714A43F480235F
:101C5C0013606F4B1B686E4A43F4803313600BE0C8
:101C6C006B4B1B686A4A23F480331360684B1B6808
:101C7C00674A23F4802313607B685B68002B13D0C6
:101C8C00FFF7B4FC386108E0FFF7B0FC02463B6993
:101C9C00D31A642B01D9032300E25D4B1B6803F4B8
:101CAC000033002BF0D014E0FFF7A0FC386108E003
:101CBC00FFF79CFC02463B69D31A642B01D9032322
:101CCC00ECE1534B1B6803F40033002BF0D100E024
:101CDC0000BF7B681B6803F00203002B63D04C4BE6
:101CEC005B6803F00C03002B0BD0494B5B6803F0D3
:101CFC000C03082B1CD1464B5B6803F48033002B80
:101D0C0016D1434B1B6803F00203002B05D07B68F4
:101D1C001B69012B01D00123C0E13D4B1B6823F053
:101D2C00F8027B685B69DB00394913430B603AE0CE
:101D3C007B681B69002B20D0364B01221A60FFF701
:101D4C0055FC386108E0FFF751FC02463B69D31A99
:101D5C00022B01D90323A1E12D4B1B6803F00203D5
:101D6C00002BF0D02A4B1B6823F0F8027B685B69D0
:101D7C00DB00274913430B6015E0264B00221A6049
:101D8C00FFF734FC386108E0FFF730FC02463B6992
:101D9C00D31A022B01D9032380E11D4B1B6803F0DE
:101DAC000203002BF0D17B681B6803F00803002BA7
:101DBC003AD07B689B69002B19D0174B01221A6013
:101DCC00FFF714FC386108E0FFF710FC02463B6992
:101DDC00D31A022B01D9032360E10D4B5B6A03F08C
:101DEC000203002BF0D0012000F09CFA1CE00A4BFF
:101DFC0000221A60FFF7FAFB38610FE0FFF7F6FBE1
:101E0C0002463B69D31A022B08D9032346E100BFD3
:101E1C00001002400000424280044242924B5B6A36
:101E2C0003F00203002BE9D17B681B6803F0040369
:101E3C00002B00F0A6800023FB758B4BDB6903F0B5
:101E4C008053002B0DD1884BDB69874A43F08053BC
:101E5C00D361854BDB6903F08053BB60BB68012306
:101E6C00FB75824B1B6803F48073002B18D17F4BDE
:101E7C001B687E4A43F480731360FFF7B7FB38612D
:101E8C0008E0FFF7B3FB02463B69D31A642B01D978
:101E9C00032303E1754B1B6803F48073002BF0D014
:101EAC007B68DB68012B06D16F4B1B6A6E4A43F0D3
:101EBC00010313622DE07B68DB68002B0CD16A4BAD
:101ECC001B6A694A23F001031362674B1B6A664A5B
:101EDC0023F0040313621CE07B68DB68052B0CD138
:101EEC00614B1B6A604A43F0040313625E4B1B6A2E
:101EFC005D4A43F0010313620BE05B4B1B6A5A4AC9
:101F0C0023F001031362584B1B6A574A23F0040356
:101F1C0013627B68DB68002B15D0FFF767FB386119
:101F2C000AE0FFF763FB02463B69D31A41F28832A1
:101F3C00934201D90323B1E04B4B1B6A03F002031C
:101F4C00002BEED014E0FFF751FB38610AE0FFF7ED
:101F5C004DFB02463B69D31A41F28832934201D9B8
:101F6C0003239BE0404B1B6A03F00203002BEED1D2
:101F7C00FB7D012B05D13C4BDB693B4A23F08053A5
:101F8C00D3617B68DB69002B00F08780364B5B6884
:101F9C0003F00C03082B61D07B68DB69022B46D164
:101FAC00334B00221A60FFF721FB386108E0FFF782
:101FBC001DFB02463B69D31A022B01D903236DE0AA
:101FCC00294B1B6803F00073002BF0D17B681B6A54
:101FDC00B3F5803F08D1244B5B6823F400327B6857
:101FEC009B68214913434B601F4B5B6823F47412AD
:101FFC007B68196A7B685B6A0B431B4913434B6014
:10200C001B4B01221A60FFF7F1FA386108E0FFF769
:10201C00EDFA02463B69D31A022B01D903233DE0AA
:10202C00114B1B6803F00073002BF0D035E0104B04
:10203C0000221A60FFF7DAFA386108E0FFF7D6FAE7
:10204C0002463B69D31A022B01D9032326E0064B27
:10205C001B6803F00073002BF0D11EE07B68DB697A
:10206C00012B07D1012319E0001002400070004041
:10207C00600042420B4B5B68FB60FB6803F48032F0
:10208C007B681B6A9A4206D1FB6803F470127B686A
:10209C005B6A9A4201D0012300E0002318461837EE
:1020AC00BD4680BD0010024080B584B000AF7860A2
:1020BC0039607B68002B01D10123D0E06A4B1B688F
:1020CC0003F007033A689A4210D9674B1B6823F058
:1020DC00070265493B6813430B60634B1B6803F0B5
:1020EC0007033A689A4201D00123B8E07B681B6869
:1020FC0003F00203002B20D07B681B6803F0040361
:10210C00002B05D0594B5B68584A43F4E06353608D
:10211C007B681B6803F00803002B05D0534B5B68EE
:10212C00524A43F460535360504B5B6823F0F00207
:10213C007B689B684D4913434B607B681B6803F0BD
:10214C000103002B40D07B685B68012B07D1474B08
:10215C001B6803F40033002B15D101237FE07B684F
:10216C005B68022B07D1414B1B6803F00073002BFB
:10217C0009D1012373E03D4B1B6803F00203002BD4
:10218C0001D101236BE0394B5B6823F003027B68C0
:10219C005B68364913434B60FFF728FAF8600AE096
:1021AC00FFF724FA0246FB68D31A41F288329342B5
:1021BC0001D9032353E02D4B5B6803F00C027B68C1
:1021CC005B689B009A42EBD1274B1B6803F007031B
:1021DC003A689A4210D2244B1B6823F0070222491A
:1021EC003B6813430B60204B1B6803F007033A68F2
:1021FC009A4201D0012332E07B681B6803F0040390
:10220C00002B08D0194B5B6823F4E0627B68DB6819
:10221C00164913434B607B681B6803F00803002BC3
:10222C0009D0124B5B6823F460527B681B69DB009E
:10223C000E4913434B6000F021F802460B4B5B68D0
:10224C001B0903F00F030A49CB5C22FA03F3094A7A
:10225C001360094B1B681846FFF786F900231846D4
:10226C001037BD4680BD00BF002002400010024068
:10227C00942B00084C0000205000002080B487B044
:10228C0000AF0023FB600023BB6000237B610023B5
:10229C007B6000233B611E4B5B68FB60FB6803F0BB
:1022AC000C03042B02D0082B03D027E0194B3B6105
:1022BC0027E0FB689B0C03F00F03174AD35C7B6091
:1022CC00FB6803F48033002B10D0114B5B685B0C64
:1022DC0003F00103114AD35CBB607B680D4A03FB1E
:1022EC0002F2BB68B2FBF3F37B6104E07B680C4A3F
:1022FC0002FB03F37B617B693B6102E0054B3B61B5
:10230C0000BF3B6918461C37BD4680BC704700BFF8
:10231C000010024000127A00A42B0008B42B000815
:10232C0000093D0080B485B000AF78600A4B1B6893
:10233C000A4AA2FB03235B0A7A6802FB03F3FB60E5
:10234C0000BFFB685A1EFA60002BF9D100BF00BF1A
:10235C001437BD4680BC70474C000020D34D621032
:10236C0080B582B000AF78607B68002B01D101236F
:10237C0041E07B6893F83D30DBB2002B06D17B68E3
:10238C00002283F83C207868FFF752F87B68022221
:10239C0083F83D207B681A687B6804331946104625
:1023AC0000F056FA7B68012283F846207B680122F4
:1023BC0083F83E207B68012283F83F207B68012252
:1023CC0083F840207B68012283F841207B6801223E
:1023DC0083F842207B68012283F843207B6801222A
:1023EC0083F844207B68012283F845207B68012216
:1023FC0083F83D20002318460837BD4680BD0000F9
:10240C0080B485B000AF78607B6893F83D30DBB268
:10241C00012B01D0012335E07B68022283F83D209B
:10242C007B681B68DA687B681B6842F00102DA6023
:10243C007B681B68164A934209D07B681B68B3F112
:10244C00804F04D07B681B68124A934211D17B6881
:10245C001B689B6803F00703FB60FB68062B10D01E
:10246C007B681B681A687B681B6842F001021A6063
:10247C0007E07B681B681A687B681B6842F00102E6
:10248C001A60002318461437BD4680BC704700BF45
:10249C00002C01400004004080B584B000AF78608F
:1024AC007B681B68DB68FB607B681B681B69BB6017
:1024BC00BB6803F00203002B20D0FB6803F002037F
:1024CC00002B1BD07B681B686FF002021A617B68C3
:1024DC0001221A777B681B689B6903F00303002BAE
:1024EC0003D0786800F098F905E0786800F08BF973
:1024FC00786800F09AF97B6800221A77BB6803F0C1
:10250C000403002B20D0FB6803F00403002B1BD02A
:10251C007B681B686FF004021A617B6802221A77D1
:10252C007B681B689B6903F44073002B03D07868AD
:10253C0000F072F905E0786800F065F9786800F051
:10254C0074F97B6800221A77BB6803F00803002B30
:10255C0020D0FB6803F00803002B1BD07B681B68A2
:10256C006FF008021A617B6804221A777B681B687B
:10257C00DB6903F00303002B03D0786800F04CF9FF
:10258C0005E0786800F03FF9786800F04EF97B6858
:10259C0000221A77BB6803F01003002B20D0FB68D5
:1025AC0003F01003002B1BD07B681B686FF010022C
:1025BC001A617B6808221A777B681B68DB6903F455
:1025CC004073002B03D0786800F026F905E078689A
:1025DC0000F019F9786800F028F97B6800221A7766
:1025EC00BB6803F00103002B0CD0FB6803F0010364
:1025FC00002B07D07B681B686FF001021A617868AA
:10260C00FEF75CFEBB6803F08003002B0CD0FB686C
:10261C0003F08003002B07D07B681B686FF08002EF
:10262C001A61786800F06FFABB6803F04003002B66
:10263C000CD0FB6803F04003002B07D07B681B68B1
:10264C006FF040021A61786800F0F8F8BB6803F08C
:10265C002003002B0CD0FB6803F02003002B07D0C9
:10266C007B681B686FF020021A61786800F042FAF0
:10267C0000BF1037BD4680BD80B584B000AF786018
:10268C0039600023FB737B6893F83C30012B01D13C
:10269C000223B4E07B68012283F83C207B68022291
:1026AC0083F83D207B681B689B68BB60BB6823F08C
:1026BC007703BB60BB6823F47F43BB607B681B68FC
:1026CC00BA689A603B681B68B3F5005F3ED0B3F5FF
:1026DC00005F00F28780B3F5805F00F08680B3F571
:1026EC00805F7FD8702B1AD0702B7BD8602B50D08A
:1026FC00602B77D8502B3CD0502B73D8402B58D014
:10270C00402B6FD8302B64D0302B6BD8202B60D063
:10271C00202B67D8002B5CD0102B5AD062E07B6842
:10272C0018683B6899683B685A683B68DB6800F03E
:10273C006AF97B681B689B68BB60BB6843F07703D6
:10274C00BB607B681B68BA689A604FE07B6818684E
:10275C003B6899683B685A683B68DB6800F053F942
:10276C007B681B689A687B681B6842F480429A609D
:10277C003CE07B6818683B6859683B68DB681A4624
:10278C0000F0CAF87B681B685021184600F021F94C
:10279C002CE07B6818683B6859683B68DB681A4614
:1027AC0000F0E8F87B681B686021184600F011F90E
:1027BC001CE07B6818683B6859683B68DB681A4604
:1027CC0000F0AAF87B681B684021184600F001F95C
:1027DC000CE07B681A683B681B681946104600F0D1
:1027EC00F8F803E00123FB7300E000BF7B680122D3
:1027FC0083F83D207B68002283F83C20FB7B184645
:10280C001037BD4680BD80B483B000AF786000BF88
:10281C000C37BD4680BC704780B483B000AF786085
:10282C0000BF0C37BD4680BC704780B483B000AF8E
:10283C00786000BF0C37BD4680BC704780B483B055
:10284C0000AF786000BF0C37BD4680BC70470000FD
:10285C0080B485B000AF786039607B681B68FB6022
:10286C007B682B4A934207D07B68B3F1804F03D02F
:10287C007B68284A934208D1FB6823F07003FB6005
:10288C003B685B68FA681343FB607B68204A9342A1
:10289C0007D07B68B3F1804F03D07B681D4A93420D
:1028AC0008D1FB6823F44073FB603B68DB68FA6873
:1028BC001343FB60FB6823F080023B685B691343A6
:1028CC00FB607B68FA681A603B689A687B68DA621E
:1028DC003B681A687B689A627B680D4A934203D105
:1028EC003B681A697B681A637B6801225A617B68B2
:1028FC001B6903F00103002B05D07B681B6923F0D7
:10290C0001027B681A6100BF1437BD4680BC70475A
:10291C00002C01400004004080B487B000AFF86088
:10292C00B9607A60FB681B6A7B61FB681B6A23F0E9
:10293C000102FB681A62FB689B693B613B6923F0EF
:10294C00F0033B617B681B013A6913433B617B6974
:10295C0023F00A037B617A69BB6813437B61FB68D4
:10296C003A699A61FB687A691A6200BF1C37BD46E6
:10297C0080BC704780B487B000AFF860B9607A60F3
:10298C00FB681B6A7B61FB681B6A23F01002FB6807
:10299C001A62FB689B693B613B6923F470433B61A2
:1029AC007B681B033A6913433B617B6923F0A003EB
:1029BC007B61BB681B017A6913437B61FB683A69D5
:1029CC009A61FB687A691A6200BF1C37BD4680BCED
:1029DC00704780B485B000AF786039607B689B68C5
:1029EC00FB60FB6823F07003FB603A68FB681343E1
:1029FC0043F00703FB607B68FA689A6000BF1437EA
:102A0C00BD4680BC704780B487B000AFF860B96039
:102A1C007A603B60FB689B687B617B6923F47F4336
:102A2C007B613B681A027B681A43BB6813437A6963
:102A3C0013437B61FB687A699A6000BF1C37BD4603
:102A4C0080BC704780B485B000AF786039607B681B
:102A5C0093F83C30012B01D1022341E07B68012229
:102A6C0083F83C207B68022283F83D207B681B683E
:102A7C005B68FB607B681B689B68BB60FB6823F032
:102A8C007003FB603B681B68FA681343FB607B6850
:102A9C001B68FA685A607B681B68144A934209D019
:102AAC007B681B68B3F1804F04D07B681B68104AAD
:102ABC0093420CD1BB6823F08003BB603B685B681E
:102ACC00BA681343BB607B681B68BA689A607B6802
:102ADC00012283F83D207B68002283F83C200023F0
:102AEC0018461437BD4680BC704700BF002C01400F
:102AFC000004004080B483B000AF786000BF0C3796
:102B0C00BD4680BC704780B483B000AF786000BF16
:102B1C000C37BD4680BC704703460244934200D13B
:102B2C00704703F8011BF9E770B500260C4D0D4CEE
:102B3C00641BA410A64209D100F01AF800260A4D15
:102B4C000A4C641BA410A64205D170BD55F8043B79
:102B5C0098470136EEE755F8043B98470136F2E703
:102B6C00B82B0008B82B0008B82B0008BC2B0008A9
:102B7C00F8B500BFF8BC08BC9E467047F8B500BF5E
:082B8C00F8BC08BC9E4670472E
:102B94000000000000000000010203040607080909
:102BA40002030405060708090A0B0C0D0E0F10108A
:042BB400010200001A
:042BB80031010008DF
:042BBC000D010008FF
:102BC0000100000000000000000000000100000003
:102BD00000000000000000000100000000000000F4
:102BE00000000000010000000000000000000000E4
:102BF000C8000000C8000000C8000000010000007C
:102C000005000000030000000200000000127A002E
:082C10001000000001000000AB
:04000005080014FDDE
:00000001FF
